:073EBB004406B30000000003
:10410E0043BA80E59D602E78FAE6FFAD9FC3ED9F22
:10411E00FFE49400FE3395E0FDFC7BE07A28790104
:10412E007800122204E42FFFEE3451FEED3425FD0B
:10413E00EC3402802B78FBE6FFAD9FC3ED9FFFE4CE
:10414E009400FE3395E0FDFCE47B807ABBF9F81217
:10415E002204E42FFFEE3436FEED346EFDEC340116
:10416E00FC9006AF1223899006AFE0FCA3E0FDA3FE
:10417E00E0FEA3E0FFC00790FE01E0FBE4FAF9F8D1
:10418E00D00712228F9006AF1223897FC07EF67D54
:10419E00577C009006AFE0F8A3E0F9A3E0FAA3E0A5
:1041AE00FBC312234550097F007E607D547C0022A4
:1041BE007FC07E267D827C009006AFE0F8A3E0F9FA
:1041CE00A3E0FAA3E0FBC312234550097F807E8D46
:1041DE007D5B7C00227F807EED7DAF7C009006AF04
:1041EE00E0F8A3E0F9A3E0FAA3E0FBC312234550E5
:1041FE00097F007EC07DA87C00227F807E2D7DE819
:10420E007C009006AFE0F8A3E0F9A3E0FAA3E0FB90
:10421E00C312234550097F007E1B7DB77C00227F91
:10422E00807E367D257C019006AFE0F8A3E0F9A3F1
:10423E00E0FAA3E0FBC312234550097F007E407DC8
:10424E00197C01227F807E567D417C019006AFE075
:10425E00F8A3E0F9A3E0FAA3E0FBC312234550094B
:10426E007F007E2D7D317C01227F007EDB7D5F7C99
:10427E00019006AFE0F8A3E0F9A3E0FAA3E0FBC3D8
:10428E0012234550097F007E807D517C01227F6084
:10429E007E197D857C019006AFE0F8A3E0F9A3E0DE
:1042AE00FAA3E0FBC312234550097F007E367D6ED4
:1042BE007C01227F207EE07DB27C019006AFE0F88B
:1042CE00A3E0F9A3E0FAA3E0FBC312234550097F54
:1042DE00C07EFC7D9B7C01227FE07EA67DE07C0182
:1042EE009006AFE0F8A3E0F9A3E0FAA3E0FBC31257
:1042FE00234550097F807EC37DC97C01227F607E6D
:10430E002B7DFF7C019006AFE0F8A3E0F9A3E0FA65
:10431E00A3E0FBC312234550097F007E407DFA7C4B
:0A432E0001227FC07E0E7D167C0286
:014338002262
:107BFC009006B3122395016E3600E4F594F593F5D7
:107C0C0092F591F596F595F5B2F5B1F5B4F5B3F5A8
:107C1C00CAF5C9F5D8F5D9F5DEF58EF598F59AF5CE
:107C2C00ACF584F5A2F5BAF5AFF589F5E9F5F912DD
:107C3C0088A09002B51223950001C2009002B9747D
:0A7C4C0002F07B01E4FDFF024B5F34
:108D74009006E0EFF0FDE4FF127EAA9006E0E0FF2B
:018D840022CC
:03000E00C2AF225C
:03001600D2AF2244
:083EC200450640323350514027
:108280009002B2EFF0C39405748094805011E02402
:1082900040F582E43406F583E0FF7D0102399A90CF
:1082A00002B27405F09002B2E0FF14F0EF6013E048
:1082B0002440F582E43406F583E0FF7D0112399A0B
:0382C00080E32236
:108D3E0074402FF582E43406F583E07002FF227F43
:028D4E00012200
:108A67009002B4EFF0128D3EEF70137F0AFE128C66
:108A7700B49002B4E0FF128D3EEF7002FF227F0137
:018A870022CC
:10867300127BFCE4FF1282807F011282807F021250
:1086830082807F03128280E4FD7F3012399AE4FDF9
:108693007F3112399AE4FD7F4612399AE4FD7F5403
:0386A30002399AFF
:107CAF009002B3122395000032C8E49002B7F0A3FC
:107CBF00F07F2212455B9002B3122395000032C869
:107CCF00E49002B7F0A3F07F2612455B9002B31247
:107CDF002395000032C8E49002B7F0A3F07F101292
:107CEF00455B9002B3122395000032C8E49002B7AF
:087CFF00F0A3F07F1702455BC2
:0A8E3F007F031282C3E4FF0282C326
:03001E00028C173A
:098E7B001276C412800802805036
:10884C00E4FD7F08127EE6E4FD7F09127EE6E4FD7E
:10885C007F0A127EE6E4FD7F0B127EE6E4FD7F06C6
:0A886C00127EE6E4FD7F01027EE6C5
:03003E00026E8CC3
:10002600128673127CAF128E3F12001E128E7B1246
:05003600884C02003EB1
:107EE60043BC80EF131313541FFB7A006401701711
:107EF600EF5407FEF87401088002C333D8FCFEF481
:107F06005294EE42938019EB4A7015EF5407FEF82F
:107F16007401088002C333D8FCFEF45292EE4291FB
:097F2600ED540F42DE43DE20227F
:02882100A905A7
:1088230053BCF0EF42BC43BC40E5BC30E5FB53BC5A
:10883300DFAFBDEFFEADBEEDFFAD01A805088005BE
:08884300CEC313CE13D8F9FFD8
:01884B00220A
:108C3000EF1FAC0670011E4C600C00007D2C7C13F5
:068C4000DCFEDDFC80EA11
:018C4600220B
:108D1800EF1FAA0670011E4A60087D091DED60F06C
:028D280080FACF
:018D2A002226
:068E960043C780028AA917
:0400060053C77F223B
:0E8E2400E5C75401640170037F01227F002224
:108AA9007B407A42790F78009006B3E0FCA3E0FDA1
:0D8AB900A3E0FEA3E0FF12228FEF04F5F50D
:018AC600228D
:1081B200900671EBF0A3EAF0A3E9F0AD07AC067507
:1081C200C501900674E0FF14F0EF60288DC4ECF551
:1081D200C375C65A75C6A5900671E0FBA3E475F097
:1081E200011221B6A9F0FAE5C21220CF0DBD00019D
:0581F2000C0080CE220C
:1081F700900677EBF0A3EAF0A3E9F0AD07AC0675BC
:10820700C50290067AE0FF14F0EF60288DC4ECF504
:10821700C3900677E0FBA3E475F0011221B6A9F03D
:10822700FA122089F5C20DBD00010C75C65A75C634
:05823700A50080CE222D
:108DB80075C5038FC4EEF5C375C65A75C6A50022DE
:10863F00EF7007ED24FF9288D2A8EF64017007ED69
:10864F0024FF928AD2AAEFFD7C0064027003438F4D
:10865F0010ED64034C7003438F20ED64044C7003E2
:04866F00438F4022D3
:107B4600EDFB7A0064017025EFC4540F2410FDE4A8
:107B560034FE8D82F583C083C082E0FEEF540FFFB2
:107B6600F87401088002C333D8FC4E8028EB4A70B3
:107B760029EFC4540F2410FDE434FE8D82F583C032
:107B860083C082E0FEEF540FFFF87401088002C341
:0B7B960033D8FCF45ED082D083F022D4
:10399A00ED6003023A3DEF54F0F9FB7A007013EF41
:1039AA00540FFEF87401088002C333D8FCF4529312
:1039BA005294EB64104A7013EF540FFEF874010826
:1039CA008002C333D8FCF452915292E964207013F6
:1039DA00EF540FFEF87401088002C333D8FCF45286
:1039EA00955296E9FB7A0064307013EF540FFEF893
:1039FA007401088002C333D8FCF452B152B2EB64AA
:103A0A00404A7013EF540FFEF87401088002C33362
:103A1A00D8FCF452B352B4E964506003023C4AEF52
:103A2A00540FFEF87401088002C333D8FCF452C95B
:103A3A0052CA22ED64016003023AEDEF54F0F9FB39
:103A4A007A007015EF540FFEF87401088002C33330
:103A5A00D8FCFEF45293EE4294EB64104A7015EFD0
:103A6A00540FFEF87401088002C333D8FCFEF452E6
:103A7A0091EE4292E964207015EF540FFEF874013A
:103A8A00088002C333D8FCFEF45295EE4296E9FB55
:103A9A007A0064307015EF540FFEF8740108800242
:103AAA00C333D8FCFEF452B1EE42B2EB64404A7022
:103ABA0015EF540FFEF87401088002C333D8FCFED8
:103ACA00F452B3EE42B4E964506003023C4AEF5444
:103ADA000FFEF87401088002C333D8FCFEF452C901
:103AEA00023C47ED64026003023B9EEF54F0F9FB8F
:103AFA007A007015EF540FFEF87401088002C33380
:103B0A00D8FCFE4293EEF45294EB64104A7015EF1F
:103B1A00540FFEF87401088002C333D8FCFE4291A8
:103B2A00EEF45292E964207015EF540FFEF8740116
:103B3A00088002C333D8FCFE4295EEF45296E9FBA4
:103B4A007A0064307015EF540FFEF8740108800291
:103B5A00C333D8FCFE42B1EEF452B2EB64404A7071
:103B6A0015EF540FFEF87401088002C333D8FCFE27
:103B7A0042B3EEF452B4E964506003023C4AEF5493
:103B8A000FFEF87401088002C333D8FCFE42C9EE66
:103B9A00F452CA22ED64036003023C4AEF54F0FD7A
:103BAA007C007014EF540FFEF87401088002C333CE
:103BBA00D8FCFE4293EE4294ED64104C7014EF541C
:103BCA000FFEF87401088002C333D8FCFE4291EE5E
:103BDA004292EF54F064207014EF540FFEF874010F
:103BEA00088002C333D8FCFE4295EE4296EF54F0A9
:103BFA00FD7C0064307014EF540FFEF874010880E5
:103C0A0002C333D8FCFE42B1EE42B2ED64404C70BE
:103C1A0014EF540FFEF87401088002C333D8FCFE77
:103C2A0042B3EE42B4EF54F064507014EF540FFEF6
:103C3A00F87401088002C333D8FCFE42C9EE42CAB6
:013C4A002257
:108D2B00EF1FAA0670011E4A60087D091DED60F059
:028D3B0080FABC
:018D3D002213
:10853000E49006D2F0A3F0FC90FE82E020E61E7FDD
:10854000017E00128D2B9006D2E475F0011221B647
:10855000FEC3E5F0941EEE940040DD7C0190FE82A7
:06856000E054BFF0AF047F
:0185660022F2
:0E8C4700EFF0A3EDF0A3EBF0A3EAF0A3E9F049
:098C550090FE817401F0028530EB
:048D5000E025E0FF3B
:0E8D540090FE86EFF090FE817402F0028530F2
:098E840090FE817403F0028530B8
:0F8DE80090FE817404F012853090FE87E0FF2228
:0F8B030090067DE0FBA3E0FAA3E0F9EF1220CF8C
:0E8B120090FE82E4F090FE817405F002853042
:0F8DF70090FE827401F090FE817405F0028530C9
:098E8D0090FE817406F0028530AC
:1080980053BACF43BA80EF14600A14600C14600E10
:1080A8002403800D43BA10800843BA20800343BAE2
:1080B8003090FE80E04440F0E04480F0C083C0820D
:1080C800E0FB900648A3A3A3E0FFEB4FD082D08348
:0780D800F090FE82E4F022AB
:107C56009006E1EFF0A905128C55EF60037F012233
:107C66009006E1128D50EF60037F0122128E84EFA1
:107C760060037F0122AF01128D54EF60037F012262
:107C8600128E84EF60037F0122AF03128D54EF60E2
:107C9600037F0122128E84EF60037F0122128E8DF4
:097CA600EF60037F01227F002240
:107897009006A5128C47EF60037F01229006A51280
:1078A7008D50EF60037F0122128E84EF60037F010A
:1078B700229006A6E0FF128D54EF60037F0122128B
:1078C7008E84EF60037F01229006A5E025E0440146
:1078D700FF128D54EF60037F0122128E84EF600345
:1078E7007F0122128DE89006A7128B06EF60037FB7
:0E78F7000122128E8DEF60037F01227F00229E
:1073CE0090067B128C47EF60037F012290067B12A2
:1073DE008D50EF60037F0122128E84EF60037F01D8
:1073EE002290067CE0FF128D54EF60037F01221283
:1073FE008E84EF60037F012290067BE025E044013E
:10740E00FF128D54EF60037F0122128E84EF600312
:10741E007F0122900680E014F06018128DE8128B26
:10742E0003EF60037F012290067EE475F0011221C6
:10743E00A080E0128DE8128B03EF60037F01221211
:0B744E008E8DEF60037F01227F002283
:10005E0043BA8053BACFEF14600A14600C14600ECA
:10006E002403800D43BA10800843BA20800343BA9C
:05007E003053BA7F229F
:10745900EFC4540FFE7025EF540FFCED5401FBA847
:1074690004088002C333D8FC42B8EDC3135401FDAC
:10747900A804088002C333D8FC42B722EE64017025
:1074890025EF540FFEED5401FCA806088002C33312
:10749900D8FC42B5EDC3135401FDA806088002C308
:1074A90033D8FC42B622EFC4540F64027024EF545F
:1074B9000FFEED5401FCA806088002C333D8FC4234
:1074C900DFEDC3135401FDA806088002C333D8FCBD
:0374D90042EE225E
:053ECA004206D40000D7
:1088A000E47BE07A2EF9F89006B3E0FCA3E0FDA3A8
:1088B000E0FEA3E0FF12228F9006D4EEF0A3EFF0CB
:0988C00075DC48E4F5D9D2DE2292
:108B2000AFF9EFFEADE9EDFF9006D5E02FFF90061F
:0C8B3000D4E03E8FECF5FC30DAFDC2DA38
:018B3C002216
:108CB400AB07AA06EB1BAE0270011A4E6005128BBD
:048CC4002080F122F9
:103ECF004605B60000000000004605B000000000E7
:023EDF000000E1
:107A2D00E4F5D875D906EF64017054EDB40A005031
:107A3D004E907A45F8282873027A63027A67027AA3
:107A4D006B027A6F027A73027A77027A7B027A7FFF
:107A5D00027A83027A89E4F5DA2275DA422275DA3E
:107A6D00632275DA532275DA732275DA202275DAFC
:107A7D00102275DA302275DA49D2DE2275DA4C22FF
:108D6200EF64017008AFFAEFFCAFEAEFFDAF05AEBA
:018D720004FC
:018D730022DD
:0A8E4900EF64017004F5F9F5E92269
:0566CB009002ABEFF0AE
:1066D000C2DEAFF9EFFFABE9EBA3CFF0A3EFF09091
:1066E00002ABE070637E037FE81221157C007D0C15
:1066F000122103AB07AA06E4F9F89006B3E0FCA365
:10670000E0FDA3E0FEA3E0FF12228FAC06AD0790F0
:1067100005B0ECF0A3EDF075DA49E5E904F5EA859A
:10672000F9FA9005B0E0FEA3E0FF9005B7E02FFF77
:106730009005B6E03EFE9002ADE02FFF9002ACE087
:106740003E9005B6F0A3EFF09002ABE06401705705
:106750007E037FE81221157C007D0C122103AB071C
:10676000AA06E4F9F89006B3E0FCA3E0FDA3E0FE7E
:10677000A3E0FF12228F9005B2EEF0A3EFF075DBDD
:1067800049E5E904F5EA85F9FA9005B9E02FFF90AB
:1067900005B8E03EFE9002ADE02FFF9002ACE03E77
:0967A0009005B8F0A3EFF0D2DE81
:0167A90022CD
:1077AF00AD07EDFB7A0070209005B6E0FEA3E0F583
:1077BF00EAEEF5FA9005B0E0FEA3E0FF9005B7E022
:1077CF002FF09005B6E03EF0EB64014A7020900573
:1077DF00B8E0FEA3E0F5EBEEF5FB9005B2E0FEA3FB
:1077EF00E0FF9005B9E02FF09005B8E03EF0ED64B2
:1077FF000270209005BAE0FEA3E0F5ECEEF5FC90E8
:10780F0005B4E0FEA3E0FF9005BBE02FF09005BAB2
:04781F00E03EF02235
:05455B009002B2EFF038
:10456000E49002BDF07D0112399A9002B2E0C45489
:104570000FFFF87401088002C333D8FC42F143BA3C
:10458000809002B3E0F8A3E0F9A3E0FAA3E0FB9087
:1045900006B3E0FCA3E0FDA3E0FEA3E0FF12228F40
:1045A000780F1223569002BDEFF09002B3E0F8A30B
:1045B000E0F9A3E0FAA3E0FB9006B3E0FCA3E0FD82
:1045C000A3E0FEA3E0FF12228FC006C0079002BD49
:1045D000E02401FFE433AB07FA3395E0F9F8D007A4
:1045E000D00612228F9002BBEEF0A3EFF09002B73C
:1045F000E0FCA3E0FDE4121FAD7B007A40791C785B
:1046000046121E81C004C005C006C0079002BBE070
:10461000FCA3E0FDE4121FADD003D002D001D00016
:10462000121D78121FE69002B9EEF0A3EFF090028F
:10463000B2E0FFC39430748094809002BDE0FD50DE
:104640006AEFC4540FF975F050A4FFAEF02402FBDA
:10465000EE34FF8B82F583EDF09002BBE0FCA3E02B
:10466000FDE42FFFEE34FF8F82F583ECF0A3EDF035
:104670009002B9E0FCA3E0FDE975F050A42410FB22
:10468000E5F034FFFA9002B2E0540F75F008A42B65
:10469000FFE5F03A8F82F583ECF0A3EDF0E975F0D9
:1046A00050A42414FDE5F034FF806D9002B2E024A4
:1046B000D0C4540FF975F050A4FFAEF02402FBEE05
:1046C00034FC8B82F583EDF09002BBE0FCA3E0FDAF
:1046D000E42FFFEE34FC8F82F583ECF0A3EDF09035
:1046E00002B9E0FCA3E0FDE975F050A42410FBE55D
:1046F000F034FCFA9002B2E0540F75F008A42BFFDE
:10470000E5F03A8F82F583ECF0A3EDF0E975F05017
:10471000A42414FDE5F034FCFC9002B2E0540F75C3
:10472000F008A42DFFE5F03C8F82F583E04480F093
:104730009002B2E0C4540F1460151460171460198D
:1047400014601B14601D2405701C43F60180174380
:10475000F610801243F701800D43F710800843FEE6
:0947600001800343FE1053BA7FEF
:01476900222D
:0B5CED00900290EFF0A3ECF0A3EDF0AC
:105CF80043BA80900290E0C3943074809480506FCF
:105D0800A3E0FCA3E0FDE4121FAD7B007A40791C00
:105D18007846121E81C004C005C006C007900290D4
:105D2800E0C4540F75F050A42400FFE5F034FF8F51
:105D380082F583E0FCA3E0FDE4121FADD003D0029E
:105D4800D001D000121D78121FE6900293EEF0A346
:105D5800EFF0900293E0FCA3E0FD900290E0F9C41C
:105D6800540F75F050A42410FBE5F034FF807390B5
:105D78000291E0FCA3E0FDE4121FAD7B007A4079BC
:105D88001C7846121E81C004C005C006C0079002D8
:105D980090E024D0C4540F75F050A42400FFE5F01F
:105DA80034FC8F82F583E0FCA3E0FDE4121FADD044
:105DB80003D002D001D000121D78121FE690029382
:105DC800EEF0A3EFF0900293E0FCA3E0FD900290C8
:105DD800E0F924D0C4540F75F050A42410FBE5F06A
:105DE80034FCFAE9540F75F008A42BFFE5F03A8F5C
:0B5DF80082F583ECF0A3EDF053BA7FBE
:015E0300227C
:054D3200900593EFF075
:104D3700E49005A2F0900594E0F8A3E0F9A3E0FA67
:104D4700A3E0FB9006B3E0FCA3E0FDA3E0FEA3E035
:104D5700FF12228F780F1223569005A2EFF09005CD
:104D670094E0F8A3E0F9A3E0FAA3E0FB9006B3E030
:104D7700FCA3E0FDA3E0FEA3E0FF12228FC006C064
:104D8700079005A2E02401FFE433AB07FA3395E06F
:104D9700F9F8D007D00612228F90059E122389902A
:104DA7000598E0FCA3E0FDE4121FAD7B007A407993
:104DB7001C7846121E81C004C005C006C0079005B6
:104DC7009EE0FCA3E0FDA3E0FEA3E0FFE4121FA822
:104DD700D003D002D001D000121D78121FE6900533
:104DE7009A12238943BA80900593E0C39430748064
:104DF70094809005A2E0FD900593E0504AC4540FBB
:104E0700F975F050A4FBAAF02402FFEA34FF8F8261
:104E1700F583EDF090059EA3A3E0FEA3E0FFE42B4E
:104E2700FDEA34FF8D82F583EEF0A3EFF090059A4B
:104E3700A3A3E0FEA3E0FDAC06E975F050A424109F
:104E4700FBE5F034FF804A24D0C4540FF975F050C5
:104E5700A4FBAAF02402FFEA34FC8F82F583EDF06D
:104E670090059EA3A3E0FEA3E0FFE42BFDEA34FC3C
:104E77008D82F583EEF0A3EFF090059AA3A3E0FEF1
:104E8700A3E0FDAC06E975F050A42410FBE5F0346F
:104E9700FCFA900593E0540F75F008A42BFFE5F09A
:104EA7003A8F82F583ECF0A3EDF0900593E0C454BC
:104EB7000F14601514601714601914601B14601D1B
:104EC7002405701C43F601801743F610801243F740
:104ED70001800D43F710800843FE01800343FE1055
:034EE70053BA7F3C
:014EEA0022A5
:105E04009002B3EFF014603914605F147003025E03
:105E14009724036003025EC1E4FD7F1312399AE400
:105E2400FD7F1412399AE4FD7F1512399A7D017FA2
:105E340013127B46E4FD7F14127B467D017F15809F
:105E440079E4FD7F2312399AE4FD7F2412399AE420
:105E5400FD7F2512399A7D017F23127B46E4FD7F65
:105E640024127B467D017F258050E4FD7F4012395A
:105E74009AE4FD7F4112399AE4FD7F4312399A7DF9
:105E8400017F40127B46E4FD7F41127B467D017F0A
:105E9400438027E4FD7F3412399AE4FD7F331239BD
:105EA4009AE4FD7F3212399A7D017F34127B46E4F5
:105EB400FD7F33127B467D017F32127B4653A2F372
:105EC4009002B3E014600A14600C14600E24038082
:105ED4000D43A204800843A208800343A20C53CEBE
:105EE400F39002B7E024FE600C14600E2402700DDF
:105EF40043CE04800843CE08800343CE0C9002B9FD
:105F0400E042CE9002B8E0700643CE8043CE104308
:035F1400CE40225A
:0D0046008FCFE5CD30E7FB75CDC0AFCF22E9
:1067AA009006B7EFF053A2F3E014603914605F1457
:1067BA0070030268412403600302686BE4FD7F13DF
:1067CA0012399AE4FD7F1412399AE4FD7F151239C1
:1067DA009A7D017F13127B46E4FD7F14127B467D6E
:1067EA00017F158079E4FD7F2312399AE4FD7F2425
:1067FA0012399AE4FD7F2512399A7D017F23127B93
:10680A0046E4FD7F24127B467D017F258050E4FD0E
:10681A007F4012399AE4FD7F4112399AE4FD7F43A1
:10682A0012399A7D017F40127B46E4FD7F41127B3B
:10683A00467D017F438027E4FD7F3412399AE4FDC7
:10684A007F3312399AE4FD7F3212399A7D017F34FF
:10685A00127B46E4FD7F33127B467D017F32127B39
:10686A00469006B7E014600914600A14600B24030A
:0D687A002243A2042243A2082243A20C22C2
:108BB00053CEF7EF24FE600B14600C2402700B43BD
:0B8BC000CE042243CE082243CE0C223C
:1082C300EF14601814602014602614602C240470CA
:1082D30030E4F58AF58C438904D28C22E4F58BF5DE
:1082E3008D438940D28E22E4F5D7F5D6438E1822EA
:1082F300E4F5D5F5D443D10C22E4F5D3F5D243D13B
:02830300C02296
:10812600EF14601714601E14602514602C2404706C
:1081360030AF8CEFFCAF8AEFFD8026AF8DEFFCAF42
:108146008BEFFD801CAFD6EFFCAFD7EFFD8012AFF3
:10815600D4EFFCAFD5EFFD8008AFD2EFFCAFD3EF85
:05816600FDAF05AE04B1
:01816B0022F1
:107F2F00EF14601714601E1460271460302404705F
:107F3F0037C28CE4F58CF58AD28C22C28EE4F58D93
:107F4F00F58BD28E22538EEFE4F5D6F5D7438E10F4
:107F5F002253D1F7E4F5D4F5D543D1082253D17F7D
:097F6F00E4F5D2F5D343D18022E0
:0572B5009006E2EFF07D
:1072BA007E037FE81221157C007D0C122103AB07A7
:1072CA00AA06E4F9F89006B3E0FCA3E0FDA3E0FE09
:1072DA00A3E0FF12228FC3E49FFFE49EFE9006E222
:1072EA00E0F9FD7C00700A8F8AEEF58CD28CD2A967
:1072FA0022ED64014C700A8F8BEEF58DD28ED2ABE3
:10730A0022E9FD7C006402700C8FD7EEF5D6438E1D
:10731A001043AF0422ED64034C700C8FD5EEF5D404
:10732A0043D10843AF2022E96404700B8FD3EEF5F2
:07733A00D243D18043AF40B4
:017341002229
:0B4B5F009002B2EFF0A3EDF0A3EBF02A
:104B6A00A3E0F8A3E0F9A3E0FAA3E0FB9006B3E020
:104B7A00FCA3E0FDA3E0FEA3E0FF12228FE47B0486
:104B8A00FAF9F812228FC3E49FFFE49EAD07FC9066
:104B9A0002B2E0147003024C38147003024C7B1406
:104BAA007003024CD424036003024D319002B9E031
:104BBA00FB7A00640170144398508D8BECF58D4399
:104BCA008E40D28EE490041BF08011EB64024A708E
:104BDA000B4398508DD7ECF5D6438E1553A23F90D0
:104BEA0002B3E0F9FF7E007008A3E064017002805E
:104BFA0035EF64024E700D9002B4E0640370054311
:104C0A00A2408022E96404700D9002B4E064057049
:104C1A000543A2808010E96406700B9002B4E06438
:104C2A0007700343A2C0E490041BF0D2AC229002A6
:104C3A00B9E06402700B439A108DD7ECF5D6438E17
:104C4A001453BAFE9002B3E0FF7E0064087008A312
:104C5A00E0640970028011EF640A4E700B9002B48E
:104C6A00E0640B700343BA0143AF01E490041CF003
:104C7A00229002B9E0FB7A006402700D439A108D0B
:104C8A00D7ECF5D6438E148011EB64034A700B43BC
:104C9A00AC508DD5ECF5D443D10A53BAFD9002B38A
:104CAA00E0FF7E00640C7008A3E0640D70028011BE
:104CBA00EF640E4E700B9002B4E0640F700343BAB7
:104CCA000243AF08E490041DF0229002B9E0FB7A97
:104CDA00006402700D4384108DD7ECF5D6438E1410
:104CEA008011EB64044A700B4384508DD3ECF5D2E7
:104CFA0043D1A053BAFB9002B3E0FF7E0064107068
:104D0A0008A3E0641170028016EF64124E701090CE
:104D1A0002B4E064137008F5CA75C90443BA0443BF
:074D2A00AF10E490041EF03D
:014D3100225F
:0F7E9B00A3E475F0011221B6A9F0FA122089FDB7
:107EAA00EF14601514601D1460252403702D9004CE
:107EBA001BE070FA04F08D992290041CE070FA0419
:107ECA00F08D9B2290041DE070FA04F08DAD229093
:0C7EDA00041EE070FA04F0AF058F852252
:1088C9009002C1EBF0A3EAF0A3E9F0AE079002C46D
:1088D90074FFF5F01221B645F0600CAF069002C1A5
:0888E900E0FB127E9B80E622F9
:1088F1009006BFEBF0A3EAF0A3E9F0AE079006BF44
:10890100E0FBA3E0FAA3E0F9122089600AAF069028
:0889110006BF127E9B80E622E6
:068E9C00256400256600BC
:0A8E5300C2B5C2B3120046D2B52228
:0A8E5D00C2B5D2B3120046D2B5220E
:048A2200AD07AC06EA
:108A2600EC9006D6F0A3EFF0C2B5D2B39006D6E02E
:0E8A3600FF1200469006D7E0FF120046D2B5B0
:018A4400220F
:10796B00900626EEF0A3EFF0A3ECF0A3EDF0A3EA64
:10797B00F0A3EBF07F2A128E53E4FF128E5D90067C
:10798B0026A3E02402FF128E5DE4FF128E5D9006AB
:10799B002AA3E02402FF128E5D7F2B128E53E4FF8D
:1079AB00128E5D900628A3E004FF128E5DE4FF1299
:1079BB008E5D90062CA3E004FF128E5D7F2C028E51
:0179CB005368
:087BA1009006BBEEF0A3EFF02B
:107BA90090062CE4F0A3749FF07B7F7A00E4FDFC3F
:107BB900FFFE12796BE49006BDF09006BDE0C39418
:107BC900A074809480502BE4A3F09006BEE0C39487
:107BD900807480948050139006BBE0FEA3E0FF12EE
:107BE9008A229006BEE004F080E09006BDE004F031
:027BF90080C842
:017BFB002267
:10476A009002B67412F0E4A3F0A3F0A3F07B117DDB
:10477A00107F01125E04C2B27F0A7E00128CB4D28C
:10478A00B27F787E00128CB47F11128E537F787EAE
:10479A0000128CB47FB1128E537F01128E5D7F2C72
:1047AA00128E5D7F2D128E5D7FB2128E537F0112A3
:1047BA008E5D7F2C128E5D7F2D128E5D7FB3128EE1
:1047CA00537F01128E5D7F2C128E5D7F2D128E5DBE
:1047DA007F01128E5D7F2C128E5D7F2D128E5D7F82
:1047EA00B4128E537F07128E5D7FC0128E537FA242
:1047FA00128E5D7F02128E5D7F84128E5D7FC112E2
:10480A008E537FC5128E5D7FC2128E537F0A128E1F
:10481A005DE4FF128E5D7FC3128E537F8A128E5D16
:10482A007F2A128E5D7FC4128E537F8A128E5D7F1D
:10483A00EE128E5D7FC5128E537F0E128E5D7F360D
:10484A00128E53E4701E14600E14600F146010244C
:10485A000370117FC0800AE4FF80067FA080027F78
:10486A0060128E5D7FE0128E537F0F128E5D7F1A6B
:10487A00128E5D7F0F128E5D7F18128E5D7F2F1252
:10488A008E5D7F28128E5D7F20128E5D7F22128EB2
:10489A005D7F1F128E5D7F1B128E5D7F23128E5DE0
:1048AA007F37128E5DE4FF128E5D7F07128E5D7F69
:1048BA0002128E5D7F10128E5D7FE1128E537F0F82
:1048CA00128E5D7F1B128E5D7F0F128E5D7F171217
:1048DA008E5D7F33128E5D7F2C128E5D7F29128E44
:1048EA005D7F2E128E5D7F30128E5D7F30128E5D5F
:1048FA007F39128E5D7F3F128E5DE4FF128E5D7FDF
:10490A0007128E5D7F03128E5D7F10128E5D7F2AE5
:10491A00128E53E4FF128E5D7F02128E5DE4FF1247
:10492A008E5D7F82128E5D7F2B128E53E4FF128E74
:10493A005D7F03128E5DE4FF128E5D7F83128E5DB2
:10494A007FF0128E537F01128E5D7FF6128E53E432
:10495A00FF128E5D7F3A128E537F05128E5D7F297C
:0A496A00128E5374FFFFFE027BA1C2
:10830500900681EEF0A3EFF0900685EAF0A3EBF07E
:10831500900683ECF0A3EDF0900681E0FAA3E0FB74
:10832500FFAE02C007A3E0FFA3E090062CCFF0A3A9
:10833500EFF0D00712796B900685E0FEA3E0FF020F
:028345008A228A
:0665EB00F583E02430FB03
:1065F10090062EEEF0A3EFF0A3ECF0A3EDF0A3EBE9
:01660100F0A8
:10660200E4A3F0900633E0F9C394107480948040C0
:10661200030266CAE9FF900631E02FFD900630E0E2
:106622003400FC90062FE02407FB90062EE0340095
:10663200FA7E00900630E0F8A3E02FFFEE389006D5
:106642002CF0A3EFF090062EE0FEA3E0FF12796B90
:10665200900632E0FF3395E0FEEFC4F8540FC868AD
:10666200FFEEC454F048FE74962FF58274FE3EF598
:1066720083C083C082900633E0D082D0832582F526
:1066820082E43583F583E493900635F0E490063492
:10669200F0900634E0C39408748094805021A3E003
:1066A20030E0067F007EF8800474FFFFFE128A222B
:1066B200900635E0C313F0900634E004F080D290E7
:0866C2000633E004F002660556
:0166CA0022AD
:10764E00900614EEF0A3EFF0A3ECF0A3EDF0A3EB95
:07765E00F0A3EAF0A3E9F03C
:10766500E4A3F0A3F0900618E0FBA3E0FAA3E0F989
:10767500A3E0FEA3E0FFF5828E831220A2FB603E0D
:10768500EF7803C333CE33CED8F9FF900615E02F3C
:10769500FF900614E03EFE900617E0C4F8540FC8AC
:1076A50068FD900616E0C454F048FC1265F190069A
:0E76B5001CE004F070AF90061BE004F080A70C
:0176C30022A4
:1068870090061DEEF0A3EFF0A3ECF0A3EDF0A3EB61
:01689700F010
:106898003395E0C364809480900620E0C4F8540FD8
:1068A800C868FD90061FE0C454F048FC90061DE03F
:1068B800FEA3E0FF500E7B2D1265F1900621E0F457
:1068C80004F080057B201265F1900621E0FF75F049
:1068D80064122067900622F0EF75F00A122067FF15
:1068E80075F00A122067AFF0900623EFF0900621AA
:1068F800E0FF75F00A122067AFF0900624EFF0E48D
:10690800A3F0900625E0FBFF7E00C39403748094F7
:10691800805045EF2401FFEE33FEEF7803C333CEFA
:1069280033CED8F9FF90061EE02FFF90061DE03EFB
:10693800FE900620E0C4F8540FC868FD90061FE0DA
:10694800C454F048FC74222BF582E434061265EB3B
:08695800900625E004F080AA7E
:016960002214
:0E75D700900636EEF0A3EFF0A3ECF0A3EDF07B
:1075E500EB75F06484A3F0EB75F00A8475F00A84FA
:1075F500A3E5F0F0EB75F00A84A3E5F0F0E4A3F061
:1076050090063DE0C3940374809480503BE0FB7585
:10761500F008A4FF900637E02FFF900636E035F01E
:10762500FE900639E0C4F8540FC868FD900638E0AE
:10763500C454F048FC743A2BF582E434061265EB29
:0876450090063DE004F080B85E
:01764D00221A
:105AB1009005BCEEF0A3EFF0A3ECF0A3EDF0A3EAA8
:045AC100F0A3EBF073
:105AC500C3EA648094809005BFE0C4F8540FC868A9
:105AD500FD9005BEE0C454F048FC9005BCE0FEA373
:105AE500E0FF501C7B2D1265F19005C0E0FEA3E0A0
:105AF500FFC3E49FFFE49E9005C0F0A3EFF080058F
:105B05007B201265F19005C0E0FAA3E0FB7C277DC0
:105B150010FFAE0212216AA3EFF07C037DE8AF030C
:105B2500AE0212216A7C007D0A12216AA3EDF09073
:105B350005C0A3E07C007D64FFAE0212216A7C00F3
:105B45007D0A12216A9005C4EDF07C007D0AAF0341
:105B5500AE0212216A7C007D0A12216AA3EDF09043
:105B650005C0E0FEA3E0FF7C007D0A12216A9005D6
:105B7500C6EDF0E4A3F09005C7E0FBFF7E00C394FB
:105B850005748094805045EF2401FFEE33FEEF78D5
:105B950003C333CE33CED8F9FF9005BDE02FFF9078
:105BA50005BCE03EFE9005BFE0C4F8540FC868FD93
:105BB5009005BEE0C454F048FC74C22BF582E43471
:0C5BC500051265EB9005C7E004F080AA13
:015BD10022B1
:0E6D2B00900600EEF0A3EFF0A3ECF0A3EDF065
:106D39007C277D10AF03AE02122115A3EFF07C036F
:106D49007DE8AF03AE021221157C007D0A122115E0
:106D5900A3EDF07C007D64AF03AE021221157C0027
:106D69007D0A122115A3EDF07C007D0AAF03AE0266
:106D79001221157C007D0A122115A3EDF0AE02AF98
:106D8900037C007D0A122115A3EDF0E4A3F090061F
:106D990009E0C3940574809480503BE0FB75F008CA
:106DA900A4FF900601E02FFF900600E035F0FE9069
:106DB9000603E0C4F8540FC868FD900602E0C45405
:106DC900F048FC74042BF582E434061265EB900656
:066DD90009E004F080B89F
:016DDF002291
:0E6413009004F4EEF0A3EFF0A3ECF0A3EDF094
:106421009004FCE0FFC3740A9F7480F898500374D1
:106431000AF09004FCE004F09004F8E0FCA3E0FD15
:10644100A3E0FEA3E0FFE4FBFAF9F8D312232F4007
:10645100319002E674FFF0A3748EF0A3749CF09067
:1064610004F8E0FCA3E0FDA3E0FEA3E0FF9002E955
:106471001223890B7A0479FD12312690051FEFF062
:1064810080389004FD7420F09002E674FFF0A3744C
:106491008EF0A3749CF09004F8E0FCA3E0FDA3E06F
:1064A100FEA3E0FF9002E91223897B017A0479FEC1
:1064B10012312690051FEFF0801E9004FCE0FF9042
:1064C100051FE0FEC39F501574FD2EF582E43404D0
:1064D100F5837420F090051FE004F080DD74FD2F3A
:1064E100F582E43404F583E4F09004F4E0FEA3E0E3
:1064F100FFA3E0FCA3E0FD7B017A0479FD02764E67
:0E540A009004C5EEF0A3EFF0A3ECF0A3EDF0DC
:105418009004CEE0FFC374069F7480F8985003741C
:1054280006F09004CDE0FFC3740A9F7480F898508A
:1054380003740AF09004C9E0FCA3E0FDA3E0FEA316
:10544800E0FFE4FBFAF9F8121F1E9002E660314013
:105458002F74FFF0A3748EF0A3749FF09004C9E03A
:10546800FCA3E0FDA3E0FEA3E0FF9002E91223897C
:105478007B017A0479D01231269004CFEFF0803086
:1054880074FFF0A3748EF0A3749FF09004C9E0FC3D
:10549800A3E0FDA3E0FEA3E0FF9002E91223897BCD
:1054A800017A0479D11231269004CFEFF0E004F0AC
:1054B8009004CFE024F9FD9004CDE0FEC3ED9E14E6
:1054C8009004F2F09004CEE0AE052E049004F3F0C0
:1054D8009004F2E0FF3395E0FED3E49FEE6480F899
:1054E8007480984022A3E0FF3395E0FE74D02FF536
:1054F8008274043EF5837420F09004F3E004F09085
:1055080004F2E004F080C99004C9E0FCA3E0FDA324
:10551800E0FEA3E0FFE4FBFAF9F8121F1E9004F284
:1055280060174015E0FF3395E0FE74D02FF58274C4
:10553800043EF583742DF08013E0FF3395E0FE748C
:10554800D02FF58274043EF5837420F09004F3E0C4
:10555800FF3395E0FE74D02FF58274043EF583E4A2
:10556800F09004C5E0FEA3E0FFA3E0FCA3E0FD7B10
:08557800017A0479D002764E9D
:0B5BD2009005D4EBF0A3EAF0A3E9F08B
:105BDD0074FFFFFE127BA1E49005DBF0A3F0E490CF
:105BED0005D9F0A3F09005D9E0FAA3E0FB7C007D88
:105BFD0028FFAE02122103C006C007A3E0FEA3E0FA
:105C0D00FF122103C006C007AF03AE02122103EF3E
:105C1D002427FBE43EFA9005DBE0FEA3E0FF122112
:105C2D0003EF2427FFE43E90062CF0A3EFF0D00500
:105C3D00D004D007D00612796BE49005D7F0A3F00D
:105C4D009005D8E025E0FF9005D7E033FE9005D410
:105C5D00E0FBA3E0FAA3E0F98F828E831220A290DD
:105C6D0005DEF0E92FF9EA3EFA9000011220A2902C
:105C7D0005DDF0FEA3E0FDEDFF128A229005D8E0D0
:105C8D0004F070069005D7E004F0C39005D8E094B9
:105C9D00409005D7E06480948640A59005DAE00435
:105CAD00F070069005D9E004F0C39005DAE0940396
:105CBD009005D9E0648094805003025BF29005DC7E
:105CCD00E004F070069005DBE004F0C39005DCE025
:0F5CDD0094049005DBE0648094805003025BEB3D
:015CEC002295
:068BE500D2A27F017E0018
:108BEB00EF1FAA0670011E4A60087D091DED60F09B
:028BFB0080FAFE
:018BFD002255
:1086A6001286B6D2A47F017E00128BEBC2A4E4FF31
:1086B600E4FEEEC39408748094805015EF3392A5BF
:1086C600EF25E0FFC2A7D2A7A2A6E4334FFF0E8094
:0186D600E1C2
:0186D7002280
:108D8500C2A4EF4480FF1286B6AF051286B6D2A400
:018D950022BB
:108C8A00C2A4EF4440FF1286B6E4FF1286B6EF1282
:058C9A0020CFD2A4224E
:0289B300AC0511
:1089B500C2A4EF4480FF1286B6AF041286A6AD07A7
:1089C500E4FF1286B6D2A4AF05EC6F60037F0122E7
:0289D5007F0021
:0189D700227D
:1086D8009006C2EBF0A3EAF0A3E9F0C2A4EF44408D
:1086E800FF1286B6E4FF1286A69006C2E0FBA3E05E
:1086F800FAA3E0F9EF1220CFE4FF1286B6D2A42243
:1084C0009006D8EEF0A3EFF0C3E49FF074109E90F6
:1084D00006D8F0A3E0C4F8540FC868FF9006D8E0AF
:1084E000C454F048F0A3EFF0FDE4FF1289B3900606
:0884F000D8E0FD7F010289B311
:108A88001286B2AD07ED7D00FCE4FF1286B6D2A4D3
:108A9800AE04EEC4F854F0C868FEEFC4540F48FFA3
:018AA80022AB
:108CC8007B017A0679E37F061286D89006E3E06492
:038CD8001C70ED20
:018CDB002276
:108DC800128CC8E4FD7F091289B3E4FFFE0284C057
:0E8D9600EBF0A3EAF0A3E9F0C2A2EF4440FF25
:038DA40002004684
:108BFE009006E4EDF0C2A2EF4480FF128DA4900621
:098C0E00E4E0FF128DA4D2A222C1
:108B3D009006C5128D96E4FF1286B69006C5E0FB31
:0D8B4D00A3E0FAA3E0F9EF1220CFD2A2229C
:058447009006DAEDF0E3
:10844C00C2A2EF4480FF128DA49006DAE0FF128DD9
:10845C00A4128BE5C2A2E4FF128DA49006DBEFF010
:10846C00E4FF128DA4D2A29006DBE0FF9006DAE0C6
:08847C006F60037F01227F0005
:0184840022D5
:1087F5009006C8128D96E4FF128DA4128BE5C2A2D5
:10880500E4FF128DA49006C8E0FBA3E0FAA3E0F90B
:0C881500EF1220CFE4FF128DA4D2A222AB
:1084F8009006DCEEF0A3EFF0C3E49FF074109E90BA
:1085080006DCF0A3E0C4F8540FC868FF9006DCE06E
:10851800C454F048F0A3EFF0FDE4FF12844790063E
:08852800DCE0FD7F0102844745
:10834700E49006DEF0A3F0C2A2FF128DA49006DE31
:10835700E4F0A3EFF0E0F8E4F0E89006DEF0E4FFE5
:10836700128DA49006DEE0F0A3E04FF0D2A29006B3
:10837700DEE0C4F854F0C868FEA3E0C4540F48FF19
:0183870022D3
:108CDC007B017A0679E57F061287F59006E5E0645C
:038CEC001C70ED0C
:018CEF002262
:108941009002B67420F0E4A3F0A3F0A3F07B207DA5
:10895100207F02125E04128CDCE4FD7F0912844741
:06896100E4FFFE0284F8B1
:10009600000000000000000000000000000000005A
:1000A6000000000808080808080800000808000002
:1000B6000048242412000000000000000000000098
:1000C6000000004848487E2424247E24242400007E
:1000D6000000103C5252121C30505052523C10102C
:1000E600000000222515150D2A58545452220000EE
:1000F6000000000C1212120A76252919916E0000D2
:1001060000060404020000000000000000000000D9
:1001160000402010100808080808081010204000A9
:10012600000204080810101010101008080402003D
:100136000000000008086B1C1C6B0808000000008B
:100146000000000000101010FE101010000000004B
:100156000000000000000000000000000604040289
:1001660000000000000000007E000000000000000B
:10017600000000000000000000000000060600006D
:100186000000402020201010080808040402020085
:100196000000001824424242424242422418000013
:1001A600000000101C10101010101010107C000021
:1001B6000000003C4242424020100804427E0000FB
:1001C6000000003C4242402018204042423C0000D1
:1001D60000000020303028242422FE2020F80000D1
:1001E6000000007E0202021E22404042221C000045
:1001F600000000182402023A4642424244380000F7
:100206000000007E422020101008080808080000A0
:100216000000003C4242422418244242423C000074
:100226000000001C22424242625C4040241800004A
:100236000000000000001818000000001818000058
:100246000000000000000008000000000008080888
:10025600000000402010080402040810204000009E
:100266000000000000007E00007E0000000000008C
:1002760000000002040810204020100804020000BC
:100286000000003C424246201010100018180000E2
:100296000000001C225A55555555553A423C00005F
:1002A6000000000808181414243C224242E700000B
:1002B6000000001F2222221E22424242221F00006C
:1002C6000000007C4242010101010142221C0000A3
:1002D6000000001F2242424242424242221F0000C8
:1002E6000000003F4212121E12120242423F00005C
:1002F6000000003F4212121E121202020207000004
:100306000000003C2222010101712122221C000072
:10031600000000E7424242427E42424242E700007B
:100326000000003E0808080808080808083E000003
:100336000000007C10101010101010101010110F7B
:100346000000007722120A0E0A12122222770000FB
:10035600000000070202020202020202427F0000BF
:100366000000007736363636362A2A2A2A6B0000EF
:10037600000000E346464A4A525252626247000073
:100386000000001C2241414141414141221C000024
:100396000000003F424242423E02020202070000C3
:1003A6000000001C224141414141414D321C600088
:1003B6000000003F4242423E1212222242C7000083
:1003C6000000007C4242020418204042423E0000E7
:1003D6000000007F4908080808080808081C0000F3
:1003E600000000E74242424242424242423C000092
:1003F600000000E7424222242414141808080000D2
:100406000000006B2A2A2A2A2A3614141414000023
:10041600000000E7422424181818242442E70000AC
:10042600000000772222141408080808081C00009F
:100436000000007E2120101008040442423F000004
:100446000078080808080808080808080808780056
:100456000000020404040808081010202020404070
:10046600001E1010101010101010101010101E008A
:10047600001824000000000000000000000000003A
:1004860000000000000000007E00000000000000E8
:100496000006080000000000000000000000000048
:1004A600000000000000001C22302C22326C0000EC
:1004B600000000000302021A26424242261A0000E9
:1004C6000000000000000038440202024438000028
:1004D600000000006040407C4242424262DC000074
:1004E600000000000000003C42427E02423C000048
:1004F600000000003048083E08080808083E0000D2
:10050600000000000000007C22221C023C42423C0B
:10051600000000000302023A4642424242E700005F
:100526000000000C0C00000E08080808083E000039
:100536000000003030000038202020202020221E1D
:100546000000000003020272120A0E122277000057
:10055600000000080E08080808080808083E000001
:10056600000000000000007F9292929292B7000075
:10057600000000000000003B4642424242E7000005
:10058600000000000000003C42424242423C0000A3
:10059600000000000000001B26424242261A020705
:1005A600000000000000005864424242645840E0E7
:1005B60000000000000000774C040404041F000043
:1005C600000000000000007C42023C40423E000069
:1005D600000000000008083E08080808483000002F
:1005E60000000000000000634242424262DC00005C
:1005F6000000000000000077222214140808000002
:1006060000000000000000DB91525A2A242400005A
:10061600000000000000006E241818182476000060
:1006260000000000000000E742242418180808060D
:10063600000000000000007E22100808447E000032
:1006460000C0202020202020102020202020C000B4
:100656001010101010101010101010101010101094
:10066600000304040404040408040404040403004A
:10067600045A2000000000000000000000000000F6
:100686000000000000000000002F0000000007002E
:10069600070000147F147F1400242A7F2A120062A8
:1006A6006408132300364955225000000503000054
:1006B60000001C224100000041221C000014083EDC
:1006C60008140008083E0808000000A060000008A2
:1006D60008080808000060600000002010080402F6
:1006E600003E5149453E0000427F400000426151B4
:1006F6004946002141454B31001814127F1000274E
:1007060045454539003C4A49493000017109050310
:1007160000364949493600064949291E0000363641
:1007260000000000563600000008142241000014A4
:100736001414141400004122140800020151090681
:1007460000324959513E007C1211127C007F494902
:100756004936003E41414122007F4141221C007F33
:1007660049494941007F09090901003E4149497A41
:10077600007F0808087F0000417F410000204041BB
:100786003F01007F08142241007F40404040007F27
:10079600020C027F007F0408107F003E4141413E6B
:1007A600007F09090906003E4151215E007F0919B3
:1007B60029460046494949310001017F0101003FB0
:1007C6004040403F001F2040201F003F4038403F30
:1007D6000063140814630007087008070061514994
:1007E600454300007F41410000552A552A55000027
:1007F60041417F00000402010204004040404040A5
:10080600000001020400002054545478007F48443C
:10081600443800384444442000384444487F003873
:100826005454541800087E0901020018A4A4A47C9C
:10083600007F080404780000447D40000040808466
:100846007D00007F102844000000417F4000007CAE
:1008560004180478007C08040478003844444438BA
:1008660000FC242424180018242418FC007C080406
:10087600040800485454542000043F444020003CDF
:100886004040207C001C2040201C003C4030403C66
:10089600004428102844001CA0A0A07C00446454F6
:1008A6004C4414141414141400000000000000003A
:1008B6000000000000000000000000F8000000003A
:1008C600000000333000000000100C06100C06007B
:1008D600000000000000000040C07840C0784000E2
:1008E600043F04043F040400007088FC0830000044
:1008F600001820FF211E0000F008F000E01800009C
:1009060000211C031E211E0000F008887000000054
:100916001E2123241927211010160E0000000000A6
:100926000000000000000000000000E018040200C3
:10093600000000071820400000020418E000000034
:100946000040201807000000404080F08040400032
:100956000202010F01020200000000F00000000088
:100966000101011F0101010000000000000000005C
:1009760080B07000000000000000000000000000D1
:10098600000101010101010100000000000000005A
:1009960000303000000000000000000080601804F5
:1009A600006018060100000000E010080810E000D2
:1009B600000F102020100F00001010F8000000009B
:1009C6000020203F202000000070080808887000E2
:1009D6000030282422213000003008888848300062
:1009E6000018202020110E000000C02010F8000082
:1009F60000070424243F240000F80888880808001B
:100A06000019212020110E0000E01088881800002F
:100A1600000F112020110E0000380808C838080001
:100A26000000003F00000000007088080888700081
:100A3600001C222121221C0000E010080810E00002
:100A46000000312222110F00000000C0C00000008B
:100A560000000030300000000000008000000000B0
:100A660000008060000000000000804020100800A8
:100A76000001020408102000404040404040400071
:100A8600040404040404040000081020408000004C
:100A96000020100804020100007048080808F00051
:100AA6000000003036010000C030C828E810E00021
:100AB6000718272423140B000000C038E0000000AC
:100AC600203C23020227382008F888888870000016
:100AD600203F202020110E00C030080808083800EA
:100AE600071820202010080008F808080810E00061
:100AF600203F202020100F0008F88888E808100002
:100B0600203F20202320180008F88888E8081000D5
:100B1600203F200003000000C0300808083800000D
:100B260007182020221E020008F808000008F8080E
:100B3600203F210101213F20000808F80808000095
:100B46000020203F2020000000000808F8080800C8
:100B5600C08080807F00000008F888C02818080040
:100B6600203F20012638200008F808000000000079
:100B7600203F20202020300008F8F800F8F8080070
:100B8600203F003F003F200008F830C00008F8086A
:100B9600203F200007183F00E01008080810E0007A
:100BA6000F10202020100F0008F808080808F00091
:100BB600203F210101010000E01008080810E000B4
:100BC6000F18242438504F0008F888888888700049
:100BD600203F2000030C30200070880808083800E9
:100BE6000038202121221C00180808F808081800DF
:100BF6000000203F2000000008F808000008F80860
:100C0600001F202020201F000878880000C8380810
:100C1600000007380E010000F80800F80008F80088
:100C2600033C0700073C0300081868808068180822
:100C360020302C03032C30200838C800C8380800A0
:100C46000000203F2000000010080808C8380800EF
:100C56002038262120201800000000FE0202020093
:100C66000000007F40404000000C30C00000000043
:100C7600000000010638C00000020202FE0000006B
:100C8600004040407F000000000004020202040011
:100C9600000000000000000000000000000000004E
:100CA6008080808080808080000202040000000036
:100CB600000000000000000000008080808000002E
:100CC6000019242222223F2008F80080800000001C
:100CD600003F112020110E000000008080800000DF
:100CE600000E112020201100000000808088F800EE
:100CF600000E112020103F20000080808080000020
:100D0600001F222222221300008080F08888881883
:100D16000020203F2020000000008080808080008E
:100D2600006B94949493600008F800808080000023
:100D3600203F210000203F200080989800000000FE
:100D46000020203F2020000000000080989800002E
:100D560000C08080807F000008F80000808080004E
:100D6600203F24022D302000000808F80000000073
:100D76000020203F2020000080808080808080002E
:100D8600203F20003F20003F8080008080800000C0
:100D9600203F210000203F2000008080808000004E
:100DA600001F202020201F0080800080800000007F
:100DB60080FFA12020110E000000008080808000AE
:100DC600000E112020A0FF8080808000808080009F
:100DD60020203F21200001000000808080808000CC
:100DE6000033242424241900008080E08080000041
:100DF6000000001F2020000080800000008080008E
:100E0600001F202020103F208080800000808080EE
:100E160000010E300806010080800080008080807E
:100E26000F300C030C300F000080800080808000A3
:100E36000020312E0E3120008080800000808080CE
:100E460080818E701806010000808080808080007E
:100E56000021302C2221300000000000807C02029C
:100E660000000000003F404000000000FF000000BE
:100E760000000000FF0000000002027C800000006D
:100E86000040403F00000000000601010202040489
:080E9600000000000000000054
:1089D800E49006E6F09006E6E064126017E4FB7D9A
:1089E800757F691284859006E6EFF07F0A7E001293
:0489F8008CB480E1DA
:0189FC002258
:107905007F0A7E00128CB41289D87B807D6B7F69DB
:10791500128B947F027E00128CB4E4FB7D6B7F6931
:10792500128485EF20E7F37B017D6B7F69128B94D1
:10793500E4FB7D6C7F69128B947B017D1A7F691254
:107945008B947B077D197F69128B947B187D1B7F38
:1079550069128B947B107D1C7F69128B947B037D50
:067965001D7F69028B94F6
:107E01007B017A0679879006517406F0E4A3F07D30
:107E11003B7F6912755E900687E0FEA3E0FDEDFFF2
:107E21009005C8EEF0A3EFF0900689E0FEA3E0FD17
:107E3100EDFF9005CAEEF0A3EFF090068BE0FEA3F4
:0C7E4100E0FDEDFF9005CCEEF0A3EFF0AB
:017E4D002212
:107E4E007B017A06798D9006517406F0E4A3F07DDD
:107E5E00437F6912755E90068DE0FEA3E0FDEDFF97
:107E6E009005CEEEF0A3EFF090068FE0FEA3E0FDBE
:107E7E00EDFF9005D0EEF0A3EFF0900691E0FEA39B
:0C7E8E00E0FDEDFF9005D2EEF0A3EFF058
:017E9A0022C5
:06891900C2A7EF4480FF3D
:10891F00E4FEEEC39408748094805015EF3392A355
:10892F00EF25E0FFC2A5D2A5A2A4E4334FFF0E802E
:01893F00E156
:018940002214
:0D8E3200C2A712891FAF0512891FD2A72207
:0F8E0600128919E4FF12891FEF1220CFD2A72281
:0B8388009006ABEBF0A3EAF0A3E9F0D5
:10839300128919E4FDFC9006AEE0FFC3ED9FEC9457
:1083A30000501FE4FF12891F9006ABE0FBA3E0FA25
:1083B300A3E0F98D828C83EF1220E10DBD00010C47
:0483C30080D4D2A7E9
:0183C7002293
:108CF0007B017A0679E77F75128E069006E7E064BD
:038D00001270ED01
:018D0300224D
:107D5C00128CF07D807F6B128E327F027E00128C33
:107D6C00B47B017A0679E87F6B128E069006E8E008
:107D7C00644170ED7D017F6B128E321D7F6C128E13
:107D8C00320D7F1A128E327D077F19128E327D18BA
:107D9C007F1B128E327D107F1C128E327D037F1D55
:037DAC00028E3212
:107F78007B017A0679939006AE7406F07F3B1283F4
:107F880088900693E0FEA3E0FDEDFF9005C8EEF0B3
:107F9800A3EFF0900695E0FEA3E0FDEDFF9005CA83
:107FA800EEF0A3EFF0900697E0FEA3E0FDEDFF9062
:077FB80005CCEEF0A3EFF091
:017FBF00229F
:107FC0007B017A0679999006AE7406F07F4312839E
:107FD00088900699E0FEA3E0FDEDFF9005CEEEF05F
:107FE000A3EFF090069BE0FEA3E0FDEDFF9005D02F
:107FF000EEF0A3EFF090069DE0FEA3E0FDEDFF9014
:0780000005D2EEF0A3EFF042
:018007002256
:0E8DA700EBF0A3EAF0A3E9F0C2A7EF4480FFCF
:038DB50002004673
:108C9F009002B3EDF0C2A7128DB59002B3E0FF12B0
:058CAF008DB5D2A722E3
:108B5A009002B4128DA7E4FF128DB59002B4E0FB27
:0D8B6A00A3E0FAA3E0F9EF1220CFD2A7227A
:037DAF009002B986
:107DB200128DA7E49002BDF0A3F09002BCE0FFC3D5
:107DC2009002BEE09F9002BDE09400502FE4FF12AB
:107DD2008DB59002B9E0FBA3E0FAA3E0F99002BDF1
:107DE200E0FCA3E0F5828C83EF1220E19002BEE07A
:0E7DF20004F070C69002BDE004F080BED2A77F
:017E0000225F
:108A4500E49002B3F09002B3E0641260147B017A03
:108A55000279B37F75128B5A7F0A7E00128CB4801F
:018A6500E42C
:018A660022ED
:1076C400E49002B2F07F0AFE128CB49002B67412F7
:1076D400F0E4A3F0A3F0A3F07B117D107F01125E10
:1076E40004128A457D807F6B128C9F7F027E00127C
:1076F4008CB47B017A0279B27F6B128B5A9002B2FE
:10770400E0644170ED7D017F6B128C9FE4FD7F6C22
:10771400128C9F7D017F1A128C9F7D077F19128C1A
:107724009F7D187F1B128C9F7D107F1C128C9F7D68
:06773400037F1D028C9F83
:108008007B017A0279B29002BC7406F07F3B127D44
:10801800AF9002B2E0FEA3E0FDEDFF9005C8EEF0E0
:10802800A3EFF09002B4E0FEA3E0FDEDFF9005CAD7
:10803800EEF0A3EFF09002B6E0FEA3E0FDEDFF90B6
:0780480005CCEEF0A3EFF000
:01804F00220E
:108050007B017A0279B29002BC7406F07F43127DF4
:10806000AF9002B2E0FEA3E0FDEDFF9005CEEEF092
:10807000A3EFF09002B4E0FEA3E0FDEDFF9005D089
:10808000EEF0A3EFF09002B6E0FEA3E0FDEDFF906E
:0780900005D2EEF0A3EFF0B2
:0180970022C6
:01000A0022D3
:078C5E00C295128C65D2954E
:0E8C65007F147E00EF1FAC0670011E4C70F6EF
:018C730022DE
:0F8E1500D294D295128C65C294128C65C29522AC
:0A8E6700C294128C5ED294028C6556
:108BCB00AD07C295128C65ED6004C2948002D294FD
:0A8BDB00D295128C65C295028C65DC
:108C7400128C5E309406C295E4FEFF22C295128CDB
:068C8400657E007F012265
:04896700E025E0FF28
:02896B00AD0756
:10896D007B08AF031BEF6015ED30E704D294800256
:10897D00C294ED25E0FD128C60C29580E5028C74E9
:0285D500AD07F0
:1085D700E4FBC295128C65D294E4FAEAC39408745A
:1085E7008094805011128C65128C5EEB25E0FB3075
:1085F70094010B0A80E5C295128C65AF05128BCBEF
:02860700AF03BF
:01860900224E
:108B94009006E9EFF0AA03A905128E15128967AFB2
:0C8BA4000112896BAF0212896B028E6710
:098485009006EAEDF0AA07A90334
:10848E00128E15EA25E0FF12896BE0FF12896BE967
:10849E0064017003128E67128E15AF02EF25E04451
:1084AE0001FF12896BE4FF1285D5AD07128E67AFFF
:0184BE0005B8
:0184BF00229A
:10755E0090064CEFF0A3EDF0A3EBF0A3EAF0A3E955
:10756E00F0128E1590064C128967A3E0FF12896BFC
:10757E00900652E064017003128E67128E1590060B
:10758E004CE025E04401FF12896B900651E014F0A7
:10759E0060207F011285D590064EE0FBA3E0FAA392
:1075AE00E0F9EF1220CF90064FE475F0011221A002
:1075BE0080D8E4FF1285D590064EE0FBA3E0FAA337
:0975CE00E0F9EF1220CF028E67F4
:0A8E71002D00200025640025660096
:05887600F583E493FF0F
:10887B007E08C2C4D2C3C2B6AD061EED6014EF3083
:10888B00E704D2C18002C2C1D2B6C2B6EF25E0FF67
:04889B0080E6D2C4DD
:01889F0022B6
:1089FD007E06C2C4D2C3C2B6AD061EED6014EF3002
:108A0D00E704D2C18002C2C1D2B6C2B6EF25E0FFE3
:048A1D0080E6D2C459
:018A21002232
:0887C80054F0C4540F4410FFEB
:1087D0007E08C2C4C2C3C2B6AD061EED6014EF303F
:1087E000E704D2C18002C2C1D2B6C2B6EF25E0FF13
:0487F00080E6D2C489
:0187F4002262
:1074DC009002BDEEF0A3EFF0A3EBF0A3EAF0A3E96A
:0174EC00F0AF
:1074ED009002C37406F09002BFE0FBA3E0FAA3E0A4
:1074FD00F99002C3E0F582758300E4804E9002C3DB
:10750D00E0604D14F09002BDE0FAA3E0FB7C007D3D
:10751D000AFFAE021221159002C2EDF07C007D0A29
:10752D00AF03AE021221159002BDEEF0A3EFF09065
:10753D0002C2E02430FF9002BFE0FBA3E0FAA3E01B
:10754D00F99002C3E0F582758300EF1220E180AD62
:01755D00220B
:106E8C00D2C4D2B6C2C27F327E00128CB4D2C27FC0
:106E9C00AE1287D0E4FF1287D07F101287D07F40CC
:106EAC001287D07F811287D07F7F1287D07FA1126B
:106EBC0087D07FC81287D07FA61287D07FA8128771
:106ECC00D07F3F1287D07FD31287D0E4FF1287D0B8
:106EDC007FD51287D07F801287D07FD91287D07F41
:106EEC00F11287D07FDA1287D07F121287D07FDB26
:106EFC001287D07F401287D07F201287D07F02125A
:106F0C0087D07F8D1287D07F141287D07FA41287F1
:106F1C00D07FA61287D07FAF1287D0E4FF1285678F
:066F2C00E4FDFF028D04EC
:108D0400AC07ED24B0FF1287D0EC1287C8EC540FE7
:048D1400FF0287D003
:02856700AC075F
:10856900E4FBEBC39408748094805028EB24B0FF9B
:108579001287D07F011287D07F101287D0E4FAEAE0
:10858900C39480748094805008AF0412887B0A8059
:04859900EE0B80CE97
:01859D0022BB
:108AC700AA07A905128D04E924B0FF1287D0EA127C
:0E8AD70087C8EA540FFF1287D0AF0302887BD6
:108AE500AB07AA05128D04EA24B0FF1287D0EB125A
:0E8AF50087C8EB540FFF1287D0E4FF02887B86
:107225009002E3EFF0A3EDF0A3EBF0A3EAF0A3E9FE
:01723500F068
:10723600E4A3F0FCA3F09002E5E0FBA3E0FAA3E0F0
:10724600F99002E9E0F5827583001220A2605F24BE
:10725600E09002E8F09002E3E0D3947E748094809C
:107266004006E4F0A3E004F09002E3E0FFA3E0FDB3
:10727600128D04E4FCECC394067480948050209034
:1072860002E8E075F006A42486F582E5F03406F5FA
:1072960083E5822CF582E435831288760C80D690BD
:0E72A60002E3E02406F09002E9E004F08088A4
:0172B40022B7
:106A3000900653EFF0A3EDF0A3EBF0A3EAF0A3E987
:016A4000F065
:106A4100E4A3F0FCA3F0900655E0FBA3E0FAA3E079
:106A5100F9900659E0F5827583001220A2700302B5
:106A61006AFB24E0900658F0900653E0D3947874C2
:106A71008094804006E4F0A3E004F0900653E0FF28
:106A8100A3E0FD128D04E4FCECC3940874809480AF
:106A91005020900658E075F010A42CF582E435F0F2
:106AA100F583E58224AEF582E58334081288760CFD
:106AB10080D6900653E0FFA3E004FD128D04E4FCB0
:106AC100ECC39408748094805020900658E075F0CF
:106AD10010A42CF582E435F0F583E58224B6F58225
:106AE100E58334081288760C80D6900653E024089A
:0A6AF100F0900659E004F0026A4735
:016AFB002278
:08898D009002B4EFF0A3EDF03D
:10899500AE02AF037B017A0279B61274DC9002B4A1
:0E89A500E0FFA3E0FD7B017A0279B7027225A4
:0E773A009005DFEFF0A3EDF0A3EAF0A3EBF073
:10774800C3EA6480948050259005E1E0FEA3E0FF41
:10775800C3E49FFFE49E9005E1F0A3EFF09005DFFE
:10776800E0FFA3E0FD7BFF7A8E7971800E9005DF44
:10777800E0FFA3E0FD7BFF7A8E79731272259005F6
:10778800DFE02406F09005E1E0FEA3E0FF7B017A4C
:107798000579E31274DC9005DFE0FFA3E0FD7B01CF
:0777A8007A0579E402722565
:0E650100900520EEF0A3EFF0A3ECF0A3EDF078
:10650F00900528E0FFC3740A9F7480F898500374B5
:10651F000AF0900528E004F0900524E0FCA3E0FDCC
:10652F00A3E0FEA3E0FFE4FBFAF9F8D312232F4018
:10653F00319002E674FFF0A3748EF0A37475F0909F
:10654F000524E0FCA3E0FDA3E0FEA3E0FF9002E939
:10655F001223890B7A05792912312690054BEFF01A
:10656F0080389005297420F09002E674FFF0A37430
:10657F008EF0A37475F0900524E0FCA3E0FDA3E07A
:10658F00FEA3E0FF9002E91223897B017A05792AA5
:10659F0012312690054BEFF0801E900528E0FF90FA
:1065AF00054BE0FEC39F501574292EF582E4340588
:1065BF00F5837420F090054BE004F080DD74292FF3
:1065CF00F582E43405F583E4F0900520A3E0FFA302
:0C65DF00A3E0FD7B017A057929027225FA
:0E5580009002B4EEF0A3EFF0A3ECF0A3EDF078
:10558E009002BDE0FFC374069F7480F898500374B8
:10559E0006F09002BCE0FFC3740A9F7480F8985026
:1055AE0003740AF09002B8E0FCA3E0FDA3E0FEA3B2
:1055BE00E0FFE4FBFAF9F8121F1E9002E66031409C
:1055CE002F74FFF0A3748EF0A37478F09002B8E0FD
:1055DE00FCA3E0FDA3E0FEA3E0FF9002E912238905
:1055EE007B017A0279BF1231269002BEEFF0803035
:1055FE0074FFF0A3748EF0A37478F09002B8E0FC00
:10560E00A3E0FDA3E0FEA3E0FF9002E91223897B55
:10561E00017A0279C01231269002BEEFF0E004F05A
:10562E009002BEE024F9FD9002BCE0FEC3ED9E1494
:10563E009002E1F09002BDE0AE052E049002E2F081
:10564E009002E1E0FF3395E0FED3E49FEE6480F834
:10565E007480984022A3E0FF3395E0FE74BF2FF5CF
:10566E008274023EF5837420F09002E2E004F09022
:10567E0002E1E004F080C99002B8E0FCA3E0FDA3D3
:10568E00E0FEA3E0FFE4FBFAF9F8121F1E9002E120
:10569E0060174015E0FF3395E0FE74BF2FF582745E
:1056AE00023EF583742DF08013E0FF3395E0FE7417
:1056BE00BF2FF58274023EF5837420F09002E2E073
:1056CE00FF3395E0FE74BF2FF58274023EF583E43E
:1056DE00F09002B4A3E0FFA3A3E0FD7B017A027970
:0456EE00BF02722560
:102B6A00900584ECF0A3EDF0A3EBF0A3EAF0A3E95F
:092B7A00F0900582EEF0A3EFF0EB
:102B83007E005407FF900590EEF0A3EFF0701790CE
:102B93000582E0FEA3E07803CEC313CE13D8F9FF7A
:102BA30090058EEE8018900582E0FEA3E07803CEB8
:102BB300C313CE13D8F92401FFE43E90058EF0A38E
:102BC300EFF0E490058AF0A3F090058EE0FEA3E019
:102BD300FF90058AE0FCA3E0FDC39FEE6480F8EC60
:102BE3006480984003023125E4FF128D04E4A3F0CE
:102BF300A3F0900584E0FCA3E0FDC390058DE09D68
:102C030090058CE09C4003023114E4900592F0900F
:102C1300058FE024FFFF90058EE034FFFE90058AC8
:102C2300E0FAA3E0FBC39FEE6480F8EA6480984077
:102C330015900590E0FEA3E0FF4E600AEF9401EECD
:102C430064809480404D900592E0FFC007AE02EB94
:102C53007803C333CE33CED8F9FF12210390058610
:102C6300E0FBA3E0FAA3E02FF9EA3EFA90058CE03B
:102C7300FEA3E029F9EA3EFA122089FF900589E0D4
:102C8300FEEFD39E40047E0180027E00D0E04E9092
:102C93000592F090058FE024FFFF90058EE034FF4E
:102CA300FE90058AE0FCA3E0FDC39FEE6480F8EC90
:102CB3006480984015900590E0FEA3E0FF4E600A03
:102CC300EF9402EE648094804063900592E0FFC02D
:102CD30007AE04ED7803C333CE33CED8F9FF9005A6
:102CE30084E0FCA3E0FD122103A3E0FBA3E0FAA32D
:102CF300E02FF9EA3EFA90058CE0FEA3E029F9EA19
:102D03003EFA900584E0FEA3E029F9EA3EFA122098
:102D130089FF900589E0FEEFD39E40047F01800286
:102D23007F00EF25E0FED0E04E900592F090058FF6
:102D3300E024FFFF90058EE034FFFE90058AE0FC5F
:102D4300A3E0FDC39FEE6480F8EC64809840159087
:102D53000590E0FEA3E0FF4E600AEF9403EE64806B
:102D63009480406C900592E0FFC007AE04ED7803B9
:102D7300C333CE33CED8F9FF900584E0FCA3E0FD46
:102D8300122103A3E0FBA3E0FAA3E02FF9EA3EFA42
:102D930090058CE0FEA3E029F9EA3EFA900585E070
:102DA30025E0FF900584E033FEE92FF9EA3EFA12AD
:102DB3002089FF900589E0FEEFD39E40047F0180C8
:102DC300027F00EF25E025E0FED0E04E900592F073
:102DD30090058FE024FFFF90058EE034FFFE900501
:102DE3008AE0FCA3E0FDC39FEE6480F8EC64809866
:102DF3004015900590E0FEA3E0FF4E600AEF9404B7
:102E0300EE64809480406A900592E0FFC007AE04B0
:102E1300ED7803C333CE33CED8F9FF900584E0FCBD
:102E2300A3E0FD122103A3E0FBA3E0FAA3E02FF943
:102E3300EA3EFA90058CE0FEA3E029F9EA3EFA9017
:102E43000584E0FEA3E0F5828E8374031223C61289
:102E530020A2FF900589E0FEEFD39E40047F01800E
:102E6300027F00EF33333354F8FED0E04E900592E7
:102E7300F090058FE024FFFF90058EE034FFFE9075
:102E8300058AE0FCA3E0FDC39FEE6480F8EC648058
:102E9300984015900590E0FEA3E0FF4E600AEF9482
:102EA30005EE64809480406D900592E0FFC007AE0C
:102EB30004ED7803C333CE33CED8F9FF900584E015
:102EC300FCA3E0FD122103A3E0FBA3E0FAA3E02FA0
:102ED300F9EA3EFA90058CE0FEA3E029F9EA3EFA0E
:102EE300900584E0FEA3E07802C333CE33CED8F955
:102EF30029F9EA3EFA122089FF900589E0FEEFD313
:102F03009E40047F0180027F00EFC454F0FED0E0B6
:102F13004E900592F090058FE024FFFF90058EE020
:102F230034FFFE90058AE0FCA3E0FDC39FEE6480BE
:102F3300F8EC6480984015900590E0FEA3E0FF4E06
:102F4300600AEF9406EE648094804069900592E0F5
:102F5300FFC007AE04ED7803C333CE33CED8F9FFF9
:102F6300900584E0FCA3E0FD122103A3E0FBA3E0B2
:102F7300FAA3E02FF9EA3EFA90058CE0FEA3E029DC
:102F8300F9EA3EFA900584E0FEA3E0F5828E8374AD
:102F9300051223C61220A2FF900589E0FEEFD39EFF
:102FA30040047F0180027F00EFC43354E0FED0E091
:102FB3004E900592F090058FE024FFFF90058EE080
:102FC30034FFFE90058AE0FCA3E0FDC39FEE64801E
:102FD300F8EC6480984015900590E0FEA3E0FF4E66
:102FE300600AEF9407EE64809480406A900592E053
:102FF300FFC007AE04ED7803C333CE33CED8F9FF59
:10300300900584E0FCA3E0FD122103A3E0FBA3E011
:10301300FAA3E02FF9EA3EFA90058CE0FEA3E0293B
:10302300F9EA3EFA900584E0FEA3E0F5828E83740C
:10303300061223C61220A2FF900589E0FEEFD39E5D
:1030430040047F0180027F00EFC4333354C0FED0BD
:10305300E04E900592F090058FE024FFFF90058EDF
:10306300E034FFFE90058AE0FCA3E0FDC39FEE641D
:1030730080F8EC6480984015900590E0FEA3E0FF93
:103083004E600AEF9408EE64809480406B90059242
:10309300E0FFC007AE04ED7803C333CE33CED8F9D7
:1030A300FF900584E0FCA3E0FD122103A3E0FBA352
:1030B300E0FAA3E02FF9EA3EFA90058CE0FEA3E0E4
:1030C30029F9EA3EFA900584E0FEA3E0F5828E83B7
:1030D30074071223C61220A2FF900589E0FEEFD3E6
:1030E3009E40047F0180027F00EFC433333354805A
:1030F300FED0E04E900592F0900592E0FF12887B9F
:1031030090058DE004F0700690058CE004F0022B2E
:10311300F590058BE004F0700690058AE004F00258
:023123002BCCB3
:013125002287
:0B6961009005A3EFF0A3EDF0A3EBF016
:10696C00E49005AAF0A3F09005A9E0FFC39005AB55
:10697C00E09F7480F89005AAE06480984003026A56
:10698C002FE49005ACF0A3F09005A5E0FF131313D2
:10699C00541FFD9005ACE0FAA3E0FBC39D7480F896
:1069AC00EA64809850699005AAA3E08FF0A4FF9048
:1069BC0005A3E02FFFA3E02BFD128D04E49005AEA0
:1069CC00F0A3F09005A6E0FBA3E0FAA3E0F91220F7
:1069DC0089FF12887B9005A7E475F0011221A09025
:1069EC0005AFE004F070069005AEE004F0C390052E
:1069FC00AFE094109005AEE06480948040C59005A3
:106A0C00ADE004F070829005ACE004F00269949063
:106A1C0005ABE004F060030269739005AAE004F092
:036A2C0002697389
:016A2F002244
:108DD8007D017F03127EE67D0A7C00E4FF0266CBFC
:106FD5009002ACEBF0A3EAF0A3E9F09002ABEFF07E
:106FE500E49002AFF0FD127EAA9002ABE0FF7DFFB8
:106FF500127EAA9002ABE0FF7D01127EAA9002AB41
:10700500E0FFE4FD127EAAE49002AFF09002AFE04B
:10701500FFC3948074809480504C9002ACE0FBA335
:10702500E0FAA3E0F975F002EFA4F58285F083128A
:1070350021CC7D009002ABE0FF127EAA9002ACE06D
:10704500FBA3E0FAA3E0F9A3E075F002A4F58285BD
:10705500F0831221CCFD9002ABE0FF127EAA9002D4
:06706500AFE004F080A67C
:01706B002202
:1080DF00E49002ABF0D2A0C2A1C2A0D2A1D2A0C2A2
:1080EF00A1F09002ABE0C39480748094805027C2BB
:1080FF00A0E4FD7F031288219002ABE025E02478F5
:10810F00F582E43401F583EEF0A3EFF0D2A09002F4
:06811F00ABE004F080CC8F
:018125002237
:0E71030090065AEBF0A3EAF0A3E9F0A3EDF03A
:1071110074FFA3F0A3F0E4A3F090065DE0FF9006F6
:1071210060E0FEC39F506390065AE0FBA3E0FAA320
:10713100E0F98E827583001220A2FF90065EE0F0D6
:10714100A3E06FF0E4FDEDC39408748094805032A5
:1071510090065EE0FEA3E0FF30E019EEC313FEEF00
:1071610013FFEE64A0FEEF6401FF90065EEEF0A354
:10717100EFF0800B90065EE0C313F0A3E013F00D77
:1071810080C4900660E004F0808F90065EE0FEA36C
:02719100E0FF1D
:0171930022D9
:106F32009005ECECF0A3EDF0A3EAF0A3EBF09005E2
:066F4200EAEEF0A3EFF0FF
:106F4800E4FC9005F2E0FBA3E0FAA3E0F9EF1220DD
:106F5800CF9005EAE0FEEEFF9005F2E0FBA3E0FA31
:106F6800A3E0F9900001EF1220E19005ECA3E09076
:106F780000021220E19005ECE0FEEE9000031220E2
:106F8800E19005EEA3E09000041220E19005EEE008
:106F9800FEEE9000051220E19005F0A3E0900006B7
:106FA8001220E19005F0E0FEEE9000071220E17D4E
:106FB800081271039005F2E0FBA3E0FAA3E0F99050
:0D6FC8000008EF1220E1EE9000090220E128
:108C17009002B51223950001C2009002B97404F0C6
:098C27007B137D127F03024B5FF9
:106DE000900661EBF0A3EAF0A3E9F0A38062E47FF0
:106DF0001EFEFDFC900664E0F8A3E0F9A3E0FAA310
:106E0000E0FBD3122345404D308702804B90066152
:106E1000E0FBA3E0FAA3E0F99002C4E4F0A3741E3F
:106E2000F07F031288C9900662E475F01E1221A05B
:106E3000900664E0FCA3E0FDA3E0FEA3E0C3941E83
:106E4000FFEE9400FEED9400FDEC9400FC900664CF
:106E5000122389809930870F900664E0FCA3E0FD3F
:106E6000A3E0FEA3E0FF22900661E0FBA3E0FAA30B
:106E7000E0F9A3A3A3E0FFA3E09002C4CFF0A3EF47
:0C6E8000F07F031288C9E4FFFEFDFC2235
:1050A400900315E0FBA3E475F0041221B6A9F0FA0D
:1050B40012236990033A12238990033AE0FCA3E097
:1050C400FDA3E0FEA3E0FF7B017A037919E49003DA
:0650D40046F0A37410F089
:1050DA0090033F122389900343EBF0A3EAF0A3E97C
:0150EA00F0D5
:1050EB00E4900350F0A3F0900346E070030251A943
:1050FB0090033FE0FCA3E0FDA3E0FEA3E0FF9003E1
:10510B0048122389900348E0FCA3E0FDA3E0FEA333
:10511B00E0FFEC335010900348A3A3A3E01223212C
:10512B00900348122389900347E0FBE4FAF9F8A3B4
:10513B00E0FCA3E0FDA3E0FEA3E0FF12823CEB2426
:10514B0030FF900343E0FBA3E0FAA3E0F9EF12205A
:10515B00CF900348E0FCA3E0FDA3E0FEA3E0FFC07B
:10516B0007900347E0FBE4FAF9F8D00712823C9072
:10517B000348122389900351E004F0900348E0FCAC
:10518B00A3E0FDA3E0FEA3E0FFEC4D4E4F70030246
:10519B005254900344E475F0011221A080889003CF
:1051AB003FE0FCA3E0FDA3E0FEA3E0FF90034C1265
:1051BB002389900347E0FBE4FAF9F890034CE0FCF9
:1051CB00A3E0FDA3E0FEA3E0FF12228FAF03900349
:1051DB0050EFF0D3740A9F7480F8985006E0243790
:1051EB00F08007900350E02430F0900350E0FF90E4
:1051FB000343E0FBA3E0FAA3E0F9EF1220CF900307
:10520B004CE0FCA3E0FDA3E0FEA3E0FFC00790038E
:10521B0047E0FBE4FAF9F8D00712228F90034C1207
:10522B002389900351E004F090034CE0FCA3E0FDD4
:10523B00A3E0FEA3E0FFEC4D4E4F600D900344E462
:0E524B0075F0011221A00251BD900351E0FF49
:015259002232
:1062210090033EEFF07B017A037919E0FFE4FCFD76
:01623100FE6E
:0F62320090033FEBF0A3EAF0A3E9F0A312238956
:1062410090034612239500000000E47B02FAF9F85E
:10625100900342E0FCA3E0FDA3E0FEA3E0FF1222D5
:106261008F900346E0F8A3E0F9A3E0FAA3E0FBC3B3
:106271001223454003026319900342A3A3E0FEA346
:10628100E024FFFBEE34FFFAA3A3A3E0FEA3E0FFAB
:10629100C3EB9FFDEA9EFC90033FE0FBA3E0FAA362
:1062A100E0F98D828C831220A290034AF08F828EB6
:1062B100831220A2FFC007900342A3A3E0FEA3E044
:1062C10024FFFBEE34FFFAA3A3A3E0FEA3E0FDACA1
:1062D10006C3EB9DFFEA9CFE90033FE0FBA3E0FABF
:1062E1008F828E83D0E01220E190034AE0FFEF8D90
:1062F100828C831220E1900346E0FCA3E0FDA3E041
:10630100FEA3E02401FFE43EFEE43DFDE43CFC90FD
:08631100034612238902624BCE
:016319002261
:0B3126009002E3EBF0A3EAF0A3E9F055
:10313100900311122395000000009003157401F013
:10314100A37402F0A374E9F09002E6E0FBA3E0FAB5
:0B315100A3E0F912208970030236B0E1
:10315C00900318F06425600302365C9002E6A3E449
:10316C0075F0011221A0A9F0FA122089122403365D
:10317C002825322A4635025831A36331BF64322ADE
:10318C006631BF6934876F35CF703556733401752E
:07319C00350278000036A3A4
:1031A300900315E0FBA3E475F0041221B6A9F0FA2D
:0931B300122369900319EFF0E00A
:0331BC0002366A6E
:1031BF00900315E0FBA3E475F0041221B6A9F0FA11
:1031CF0012236990033A12238990033AE0FCA3E09B
:1031DF00FDA3E0FEA3E0FF7B017A0379199003467C
:1031EF007401F0A3740AF01250DA90033EEFF090DE
:1031FF00033AE0FCA3A3A3EC335014A3E02419F586
:10320F0082E43403F583742DF090033EE004F07BE9
:08321F00017A03791990033EC6
:0332270002344529
:10322A00900315E0FBA3E475F0041221B6A9F0FAA5
:10323A0012236990033A12238990033AE0FCA3E02F
:10324A00FDA3E0FEA3E0FF121FE67B017A037919D2
:10325A009003467401F0A3740AF01250DA90033E08
:10326A00EFF0E4FFFEFDFC90033AE0F8A3E0F9A3D7
:10327A00E0FAA3E0FB121F1E501690033EE0241949
:10328A00F582E43403F583742DF090033EE004F0F4
:10329A007B017A03791990033E12622C90033EE077
:1032AA00FF7E009002E3E0FBA3E0FAA3E0F8AC02A1
:1032BA00AD037B017A0379191224F590033EE0FFEE
:1032CA00FD9002E4E48DF01221A0900311E0F8A32E
:1032DA00E0F9A3E0FAA3E0FBE4FCFDFEEB2FFFEE2E
:1032EA003AFEED39FDEC38FC900311122389900364
:1032FA003AE0FCA3E0FDA3E0FEA3E0FF121FE6EC28
:10330A00121FA8A804A905AA06AB0790033AE0FC75
:10331A00A3E0FDA3E0FEA3E0FF121C837B007A2456
:10332A0079747849121D7890033A12238990033AE6
:10333A00E0FCA3E0FDA3E0FEA3E0FFEC4D4E4F60EE
:10334A002490033AA3A3A3E0121FE67B017A037930
:10335A00199003467401F0A3740AF01250DA90032C
:10336A003EEFF0802090031E7430F090031DF09021
:10337A00031CF090031BF090031AF0900319F090CD
:10338A00033E7406F090033EE0FFFDD374069D747D
:10339A0080F898401574192FF582E43403F5837484
:1033AA0030F090033EE004F080DB90033EE0241905
:1033BA00F582E43403F583742EF090033EE00412A0
:1033CA00622590033EE0FF7E009002E3E0FBA3E06B
:1033DA00FAA3E0F8AC02AD037B017A03791912244F
:1033EA00F5900311E0F8A3E0F9A3E0FAA3E0FB905B
:0733FA00033EE0FF02354431
:10340100900315E0FBA3E475F0041221B6A9F0FACC
:1034110012236990033A12238990033AE0FCA3E056
:10342100FDA3E0FEA3E0FF7B017A037919E4900399
:1034310046F0A3740AF01250DA90033EEFF07B01DC
:103441007A03791912622C90033EE0FF7E0090020C
:10345100E3E0FBA3E0FAA3E0F8AC02AD037B017A61
:103461000379191224F590033EE0FFFD9002E4E494
:103471008DF01221A0900311E0F8A3E0F9A3E0FA86
:03348100A3E0FBCA
:03348400023544CA
:10348700900315E0FBA3E475F0041221B6A9F0FA46
:1034970012236990033A12238990033AE0FCA3E0D0
:1034A700FDA3E0FEA3E0FF7B017A037919E4900313
:1034B70046F0A37408F01250DA12622190033EE03E
:1034C700FF7E009002E3E0FBA3E0FAA3E0F8AC0282
:1034D700AD037B017A0379191224F590033EE0FFCF
:1034E700FD9002E4E48DF01221A0900311E0F8A30F
:0834F700E0F9A3E0FAA3E0FBF9
:0334FF000235444F
:103502001250A412622190033EE0FF7E009002E37B
:10351200E0FBA3E0FAA3E0F8AC02AD037B017A037F
:1035220079191224F590033EE0FFFD9002E4E48D48
:10353200F01221A0900311E0F8A3E0F9A3E0FAA3AE
:10354200E0FBE4FCFDFEEB2FFFEE3AFEED39FDEC75
:013552003840
:0335530002369CA1
:10355600900315E0FBA3E475F0031221B6A9F0FA77
:103566001223E3900319EBF0A3EAF0A3E9F090032A
:1035760019E0FBA3E0FAA3E0F912208970030236F2
:10358600A3122089FF9002E3E0FBA3E0FAA3E0F98F
:10359600EF1220CF9002E4E475F0011221A090030F
:1035A60011E0FCA3E0FDA3E0FEA3E02401FFE43E5E
:1035B600FEE43DFDE43CFC90031112238990031ABE
:0935C600E475F0011221A080A5BA
:1035CF001250A490033EEFF07B017A0379197F0824
:1035DF007E007D007C001262329002E3E0FBA3E0EC
:1035EF00FAA3E0F8AC02AD037B017A0379197E00F0
:1035FF007F081224F59002E4E475F0081221A090E0
:10360F000311E0FCA3E0FDA3E0FEA3E02408FFE428
:07361F003EFEE43DFDE43C2A
:1036260080749002E3E0FBA3E0FAA3E0F9742512AC
:1036360020CF9002E4E475F0011221A0900311E07E
:10364600FCA3E0FDA3E0FEA3E02401FFE43EFEE4CC
:103656003DFDE43C80409002E6E0FBA3E0FAA3E0F7
:10366600F9122089FF9002E3E0FBA3E0FAA3E0F958
:10367600EF1220CF9002E4E475F0011221A090032E
:1036860011E0FCA3E0FDA3E0FEA3E02401FFE43E7D
:10369600FEE43DFDE43CFC9003111223899002E711
:0736A600E475F0011221A000
:1036AD00023149900315E4F0A3F0A3F0900311E06B
:0A36BD00FCA3E0FDA3E0FEA3E0FF84
:0136C70022E0
:030023000279CC93
:1079CC00C0E0C083C08263A201C083C082C0D075F6
:0679DC00D000C005C00749
:1079E200309907C29990041BE4F030982AC298AFEC
:1079F20099EFFD647F6005ED648070169006CBE020
:107A0200FF04F0D3EF941474809480400A75C76029
:077A120080059006CBE4F0B3
:107A1900D007D005D0D0D082D08363A201D082D044
:047A290083D0E032F4
:0300430002870829
:10870800C0E0C083C08263A201C083C082E59A3002
:10871800E108539AFD90041CE4F0E59A30E0035315
:108728009AFED082D08363A201D082D083D0E03277
:03008B00028738B1
:10873800C0E0C083C08263A201C083C082E5AC30C0
:10874800E10853ACFD90041DE4F0E5AC30E00353C0
:10875800ACFED082D08363A201D082D083D0E03235
:0300930002876879
:10876800C0E0C083C08263A201C083C082E58430B8
:10877800E1085384FD90041EE4F0E58430E00353DF
:1087880084FED082D08363A201D082D083D0E0322D
:03003B0002782325
:10782300C0E0C083C08263A201C083C082C0D075A0
:10783300D000C006C00730D822C2D89005B6E0FEFB
:10784300A3E0F5EAEEF5FA9005B0E0FEA3E0FF90C1
:1078530005B7E02FF09005B6E03EF030D922C2D94B
:107863009005B8E0FEA3E0F5EBEEF5FB9005B2E082
:10787300FEA3E0FF9005B9E02FF09005B8E03EF0DD
:10788300D007D006D0D0D082D08363A201D082D0DB
:0478930083D0E0328C
:03000300020011E7
:0100110032BC
:03001300020012D6
:0100120032BB
:030053000200198F
:0100190032B4
:03005B0002001A86
:01001A0032B3
:0300830002002157
:0100210032AC
:103EE10044044F000000004204A300004204930078
:103EF1000050046B00000000000000000000000002
:043F010000000000BC
:10631A00E4900278F0A3F09005CCE0FCA3E0FDEC59
:10632A00121FAD90045B122389E4900278F0A3F067
:10633A009005D0E0FCA3E0FDEC121FAD90047B12A7
:10634A00238990047BE0FCA3E0FDA3E0FEA3E0FF29
:10635A00121FE6AD07AC06900279E025E0FF900235
:10636A0078E033FE74232FF58274043EF583ECF053
:10637A00A3EDF0900279E004F07006900278E00450
:10638A00F0900278E07004A3E0640A70A3900427F6
:10639A00E0FEA3E0FF900426E02FFF900425E03EF4
:1063AA00FE90042AE02FFF900429E03EFE90042C80
:1063BA00E02FFF90042BE03EFE90042EE02FFF908A
:1063CA00042DE03EFE900430E02FFF90042FE03EC3
:1063DA00FE900432E02FFF900431E03EFE90043438
:1063EA00E02FFF900433E03EFEEF7803CEC313CED6
:1063FA0013D8F9FF900491EEF0A3EFF0FDAC06E498
:09640A00121FAD90047B022389EE
:10602600900550E0FCA3E0FDEC121FADA804A90505
:10603600AA06AB0790045BE0FCA3E0FDA3E0FEA389
:10604600E0FF121C837B8F7AC27975783D121D782A
:1060560090043712238990056AE0FCA3E0FDEC1258
:106066001FADA804A905AA06AB0790047BE0FCA314
:10607600E0FDA3E0FEA3E0FF121C837B237ADB791D
:1060860079783D121D7890049F12238990044FE081
:10609600FCA3E0FDA3E0FEA3E0FF900467122389C2
:1060A600900467E0F8A3E0F9A3E0FAA3E0FB90040C
:1060B60037E0FCA3E0FDA3E0FEA3E0FF121C83E4AF
:1060C600FBFA79407840121E81900278122389905B
:1060D600044FE0F8A3E0F9A3E0FAA3E0FBC000C098
:1060E60001C002C003900278E0FCA3E0FDA3E0FE3D
:1060F600A3E0FF90049FE0F8A3E0F9A3E0FAA3E091
:10610600FB121C877B6F7A127983783A121D78D03E
:1061160003D002D001D000121C8790044F022389BD
:107A8D0090049FE0FCA3E0FDA3E0FEA3E0FF121F26
:107A9D0097900552E0F8A3E0F9A3E0FAA3E0FB12FA
:107AAD001D78C004C005C006C007900467E0FCA3A4
:107ABD00E0FDA3E0FEA3E0FF121F9790055AE0F84A
:107ACD00A3E0F9A3E0FAA3E0FB121D78D003D002E6
:0D7ADD00D001D000121C8790047F02238985
:10816C007F033085091281269004A9EE800C1281C0
:10817C0026C3E49FFFE49E9004A9F0A3EFF0E4FF74
:10818C0030C70912812690049DEE800C128126C303
:10819C00E49FFFE49E90049DF0A3EFF07F03127F19
:0681AC002FE4FF027F2F0B
:10525A0090049DE0FEA3E0FF9004AAE02FFF9004D3
:10526A00A9E03EFE7C007D0212216AAC06AD07EC85
:10527A00121FAD900485122389E490049DF0A3F0D7
:10528A009004A9F0A3F0900485E0FCA3E0FDA3E05C
:10529A00FEA3E0FF7B9A7A997999783E121D78905D
